{
  "contractName": "EventContract",
  "abi": [
    {
      "inputs": [
        {
          "internalType": "uint256",
          "name": "",
          "type": "uint256"
        }
      ],
      "name": "events",
      "outputs": [
        {
          "internalType": "address",
          "name": "organizer",
          "type": "address"
        },
        {
          "internalType": "string",
          "name": "name",
          "type": "string"
        },
        {
          "internalType": "uint256",
          "name": "date",
          "type": "uint256"
        },
        {
          "internalType": "uint256",
          "name": "price",
          "type": "uint256"
        },
        {
          "internalType": "uint256",
          "name": "ticketCount",
          "type": "uint256"
        },
        {
          "internalType": "uint256",
          "name": "ticketRemain",
          "type": "uint256"
        }
      ],
      "stateMutability": "view",
      "type": "function",
      "constant": true
    },
    {
      "inputs": [],
      "name": "nextId",
      "outputs": [
        {
          "internalType": "uint256",
          "name": "",
          "type": "uint256"
        }
      ],
      "stateMutability": "view",
      "type": "function",
      "constant": true
    },
    {
      "inputs": [
        {
          "internalType": "address",
          "name": "",
          "type": "address"
        },
        {
          "internalType": "uint256",
          "name": "",
          "type": "uint256"
        }
      ],
      "name": "tickets",
      "outputs": [
        {
          "internalType": "uint256",
          "name": "",
          "type": "uint256"
        }
      ],
      "stateMutability": "view",
      "type": "function",
      "constant": true
    },
    {
      "inputs": [
        {
          "internalType": "string",
          "name": "name",
          "type": "string"
        },
        {
          "internalType": "uint256",
          "name": "date",
          "type": "uint256"
        },
        {
          "internalType": "uint256",
          "name": "price",
          "type": "uint256"
        },
        {
          "internalType": "uint256",
          "name": "ticketCount",
          "type": "uint256"
        }
      ],
      "name": "createEvent",
      "outputs": [],
      "stateMutability": "nonpayable",
      "type": "function"
    },
    {
      "inputs": [
        {
          "internalType": "uint256",
          "name": "eventId",
          "type": "uint256"
        },
        {
          "internalType": "uint256",
          "name": "quantity",
          "type": "uint256"
        }
      ],
      "name": "buyTicket",
      "outputs": [],
      "stateMutability": "payable",
      "type": "function",
      "payable": true
    },
    {
      "inputs": [
        {
          "internalType": "uint256",
          "name": "eventId",
          "type": "uint256"
        },
        {
          "internalType": "uint256",
          "name": "quantity",
          "type": "uint256"
        },
        {
          "internalType": "address",
          "name": "to",
          "type": "address"
        }
      ],
      "name": "transferTicket",
      "outputs": [],
      "stateMutability": "nonpayable",
      "type": "function"
    }
  ],
  "bytecode": "0x608060405234801561001057600080fd5b506112eb806100206000396000f3fe6080604052600436106100555760003560e01c80630374ab0b1461005a5780630b79143014610083578063298ec208146100c557806361b8ce8c146100e1578063dae7a13c1461010c578063f086a09b14610149575b600080fd5b34801561006657600080fd5b50610081600480360381019061007c9190610999565b610172565b005b34801561008f57600080fd5b506100aa60048036038101906100a59190610a1c565b6102f4565b6040516100bc96959493929190610b18565b60405180910390f35b6100df60048036038101906100da9190610b80565b6103d8565b005b3480156100ed57600080fd5b506100f6610615565b6040516101039190610bc0565b60405180910390f35b34801561011857600080fd5b50610133600480360381019061012e9190610c07565b61061b565b6040516101409190610bc0565b60405180910390f35b34801561015557600080fd5b50610170600480360381019061016b9190610c47565b610640565b005b4283116101b4576040517f08c379a00000000000000000000000000000000000000000000000000000000081526004016101ab90610ce6565b60405180910390fd5b600081116101f7576040517f08c379a00000000000000000000000000000000000000000000000000000000081526004016101ee90610d52565b60405180910390fd5b6040518060c001604052803373ffffffffffffffffffffffffffffffffffffffff16815260200185815260200184815260200183815260200182815260200182815250600080600254815260200190815260200160002060008201518160000160006101000a81548173ffffffffffffffffffffffffffffffffffffffff021916908373ffffffffffffffffffffffffffffffffffffffff16021790555060208201518160010190816102aa9190610f7e565b5060408201518160020155606082015181600301556080820151816004015560a08201518160050155905050600260008154809291906102e99061107f565b919050555050505050565b60006020528060005260406000206000915090508060000160009054906101000a900473ffffffffffffffffffffffffffffffffffffffff169080600101805461033d90610da1565b80601f016020809104026020016040519081016040528092919081815260200182805461036990610da1565b80156103b65780601f1061038b576101008083540402835291602001916103b6565b820191906000526020600020905b81548152906001019060200180831161039957829003601f168201915b5050505050908060020154908060030154908060040154908060050154905086565b80826000821161041d576040517f08c379a000000000000000000000000000000000000000000000000000000000815260040161041490610d52565b60405180910390fd5b60008060008381526020019081526020016000206002015403610475576040517f08c379a000000000000000000000000000000000000000000000000000000000815260040161046c90611113565b60405180910390fd5b8160008083815260200190815260200160002060040154116104cc576040517f08c379a00000000000000000000000000000000000000000000000000000000081526004016104c390610d52565b60405180910390fd5b42600080868152602001908152602001600020600201541015610524576040517f08c379a000000000000000000000000000000000000000000000000000000000815260040161051b9061117f565b60405180910390fd5b6000806000868152602001908152602001600020905083816003015461054a919061119f565b34101561058c576040517f08c379a00000000000000000000000000000000000000000000000000000000081526004016105839061122d565b60405180910390fd5b838160050160008282546105a0919061124d565b9250508190555083600160003373ffffffffffffffffffffffffffffffffffffffff1673ffffffffffffffffffffffffffffffffffffffff168152602001908152602001600020600087815260200190815260200160002060008282546106079190611281565b925050819055505050505050565b60025481565b6001602052816000526040600020602052806000526040600020600091509150505481565b818360008211610685576040517f08c379a000000000000000000000000000000000000000000000000000000000815260040161067c90610d52565b60405180910390fd5b600080600083815260200190815260200160002060020154036106dd576040517f08c379a00000000000000000000000000000000000000000000000000000000081526004016106d490611113565b60405180910390fd5b816000808381526020019081526020016000206004015411610734576040517f08c379a000000000000000000000000000000000000000000000000000000000815260040161072b90610d52565b60405180910390fd5b83600160003373ffffffffffffffffffffffffffffffffffffffff1673ffffffffffffffffffffffffffffffffffffffff16815260200190815260200160002060008781526020019081526020016000206000828254610794919061124d565b9250508190555083600160008573ffffffffffffffffffffffffffffffffffffffff1673ffffffffffffffffffffffffffffffffffffffff168152602001908152602001600020600087815260200190815260200160002060008282546107fb9190611281565b925050819055505050505050565b6000604051905090565b600080fd5b600080fd5b600080fd5b600080fd5b6000601f19601f8301169050919050565b7f4e487b7100000000000000000000000000000000000000000000000000000000600052604160045260246000fd5b61087082610827565b810181811067ffffffffffffffff8211171561088f5761088e610838565b5b80604052505050565b60006108a2610809565b90506108ae8282610867565b919050565b600067ffffffffffffffff8211156108ce576108cd610838565b5b6108d782610827565b9050602081019050919050565b82818337600083830152505050565b6000610906610901846108b3565b610898565b90508281526020810184848401111561092257610921610822565b5b61092d8482856108e4565b509392505050565b600082601f83011261094a5761094961081d565b5b813561095a8482602086016108f3565b91505092915050565b6000819050919050565b61097681610963565b811461098157600080fd5b50565b6000813590506109938161096d565b92915050565b600080600080608085870312156109b3576109b2610813565b5b600085013567ffffffffffffffff8111156109d1576109d0610818565b5b6109dd87828801610935565b94505060206109ee87828801610984565b93505060406109ff87828801610984565b9250506060610a1087828801610984565b91505092959194509250565b600060208284031215610a3257610a31610813565b5b6000610a4084828501610984565b91505092915050565b600073ffffffffffffffffffffffffffffffffffffffff82169050919050565b6000610a7482610a49565b9050919050565b610a8481610a69565b82525050565b600081519050919050565b600082825260208201905092915050565b60005b83811015610ac4578082015181840152602081019050610aa9565b60008484015250505050565b6000610adb82610a8a565b610ae58185610a95565b9350610af5818560208601610aa6565b610afe81610827565b840191505092915050565b610b1281610963565b82525050565b600060c082019050610b2d6000830189610a7b565b8181036020830152610b3f8188610ad0565b9050610b4e6040830187610b09565b610b5b6060830186610b09565b610b686080830185610b09565b610b7560a0830184610b09565b979650505050505050565b60008060408385031215610b9757610b96610813565b5b6000610ba585828601610984565b9250506020610bb685828601610984565b9150509250929050565b6000602082019050610bd56000830184610b09565b92915050565b610be481610a69565b8114610bef57600080fd5b50565b600081359050610c0181610bdb565b92915050565b60008060408385031215610c1e57610c1d610813565b5b6000610c2c85828601610bf2565b9250506020610c3d85828601610984565b9150509250929050565b600080600060608486031215610c6057610c5f610813565b5b6000610c6e86828701610984565b9350506020610c7f86828701610984565b9250506040610c9086828701610bf2565b9150509250925092565b7f64617465206973206265666f7265206e6f770000000000000000000000000000600082015250565b6000610cd0601283610a95565b9150610cdb82610c9a565b602082019050919050565b60006020820190508181036000830152610cff81610cc3565b9050919050565b7f7469636b657420636f756e74206973206e6f7420636f72726563740000000000600082015250565b6000610d3c601b83610a95565b9150610d4782610d06565b602082019050919050565b60006020820190508181036000830152610d6b81610d2f565b9050919050565b7f4e487b7100000000000000000000000000000000000000000000000000000000600052602260045260246000fd5b60006002820490506001821680610db957607f821691505b602082108103610dcc57610dcb610d72565b5b50919050565b60008190508160005260206000209050919050565b60006020601f8301049050919050565b600082821b905092915050565b600060088302610e347fffffffffffffffffffffffffffffffffffffffffffffffffffffffffffffffff82610df7565b610e3e8683610df7565b95508019841693508086168417925050509392505050565b6000819050919050565b6000610e7b610e76610e7184610963565b610e56565b610963565b9050919050565b6000819050919050565b610e9583610e60565b610ea9610ea182610e82565b848454610e04565b825550505050565b600090565b610ebe610eb1565b610ec9818484610e8c565b505050565b5b81811015610eed57610ee2600082610eb6565b600181019050610ecf565b5050565b601f821115610f3257610f0381610dd2565b610f0c84610de7565b81016020851015610f1b578190505b610f2f610f2785610de7565b830182610ece565b50505b505050565b600082821c905092915050565b6000610f5560001984600802610f37565b1980831691505092915050565b6000610f6e8383610f44565b9150826002028217905092915050565b610f8782610a8a565b67ffffffffffffffff811115610fa057610f9f610838565b5b610faa8254610da1565b610fb5828285610ef1565b600060209050601f831160018114610fe85760008415610fd6578287015190505b610fe08582610f62565b865550611048565b601f198416610ff686610dd2565b60005b8281101561101e57848901518255600182019150602085019450602081019050610ff9565b8683101561103b5784890151611037601f891682610f44565b8355505b6001600288020188555050505b505050505050565b7f4e487b7100000000000000000000000000000000000000000000000000000000600052601160045260246000fd5b600061108a82610963565b91507fffffffffffffffffffffffffffffffffffffffffffffffffffffffffffffffff82036110bc576110bb611050565b5b600182019050919050565b7f6576656e7420646f65736e277420657869737400000000000000000000000000600082015250565b60006110fd601383610a95565b9150611108826110c7565b602082019050919050565b6000602082019050818103600083015261112c816110f0565b9050919050565b7f4576656e742074696d6520686173206578636565646564000000000000000000600082015250565b6000611169601783610a95565b915061117482611133565b602082019050919050565b600060208201905081810360008301526111988161115c565b9050919050565b60006111aa82610963565b91506111b583610963565b92508282026111c381610963565b915082820484148315176111da576111d9611050565b5b5092915050565b7f6e6f7420656e6f75676820616d6f756e74000000000000000000000000000000600082015250565b6000611217601183610a95565b9150611222826111e1565b602082019050919050565b600060208201905081810360008301526112468161120a565b9050919050565b600061125882610963565b915061126383610963565b925082820390508181111561127b5761127a611050565b5b92915050565b600061128c82610963565b915061129783610963565b92508282019050808211156112af576112ae611050565b5b9291505056fea2646970667358221220bf902772d912cc9c2a714bf1d60014d3e70fa8b9db03ca1d86ddf14aa27c8b5164736f6c63430008130033",
  "immutableReferences": {},
  "source": "// SPDX-License-Identifier: MIT\r\npragma solidity ^0.8.19;\r\n\r\ncontract EventContract {\r\n    struct Event{\r\n        address organizer;\r\n        string name;\r\n        uint date;\r\n        uint price;\r\n        uint ticketCount;\r\n        uint ticketRemain;\r\n    }\r\n    mapping(uint=>Event) public events;\r\n    mapping(address=>mapping (uint=>uint)) public tickets;\r\n    uint public nextId;\r\n\r\n    function createEvent(string memory name, uint date, uint price, uint ticketCount) external {\r\n        require(date > block.timestamp, \"date is before now\");\r\n        require(ticketCount>0, \"ticket count is not correct\");\r\n        events[nextId] = Event(msg.sender, name,  date,  price,  ticketCount,  ticketCount);\r\n        nextId++;\r\n    }\r\n    modifier isTicketAvailable(uint quantity, uint eventId){\r\n         require(quantity>0, \"ticket count is not correct\");\r\n        require(events[eventId].date != 0, \"event doesn't exist\");\r\n        require(events[eventId].ticketCount > quantity, \"ticket count is not correct\");\r\n        _;\r\n    }\r\n    function buyTicket(uint eventId, uint quantity) isTicketAvailable(quantity, eventId) external payable{\r\n       \r\n        require(events[eventId].date >= block.timestamp,\"Event time has exceeded\");\r\n\r\n        Event storage _event = events[eventId];\r\n\r\n        require(msg.value>= (_event.price*quantity),\"not enough amount\");\r\n        _event.ticketRemain -= quantity;\r\n        tickets[msg.sender][eventId] += quantity;\r\n\r\n    }\r\n    function transferTicket(uint eventId, uint quantity, address to) isTicketAvailable(quantity, eventId) external{\r\n        tickets[msg.sender][eventId] -= quantity;\r\n        tickets[to][eventId] += quantity;\r\n    }\r\n}",
  "sourcePath": "D:\\learn_project\\smart_contracts\\event_organization\\contracts\\event_organization.sol",
  "compiler": {
    "name": "solc",
    "version": "0.8.19+commit.7dd6d404.Emscripten.clang"
  },
  "schemaVersion": "3.4.16",
  "updatedAt": "2024-06-29T08:00:28.503Z",
  "networkType": "ethereum",
  "devdoc": {
    "kind": "dev",
    "methods": {},
    "version": 1
  },
  "userdoc": {
    "kind": "user",
    "methods": {},
    "version": 1
  }
}